:100000000C9456000C9475000C9475000C947500BB
:100010000C9475000C9475000C9475000C9475008C
:100020000C9475000C9475000C9475000C9475007C
:100030000C9475000C9475000C9475000C9475006C
:100040000C9475000C9475000C9475000C9475005C
:100050000C9475000C9475000C9475000C9475004C
:100060000C9475000C9475000C9475000C9475003C
:100070000C9475000C9475000C9475000C9475002C
:100080000C9475000C9475000C947500D200D90086
:100090001601330150011D013A0157018701BE01CC
:1000A0009101A201B301BE01BE01BE0111241FBE18
:1000B000CFEFD0E4DEBFCDBF11E0A0E0B1E0E6EECF
:1000C000F3E000E00BBF02C007900D92AE30B10725
:1000D000D9F711E0AEE0B1E001C01D92A131B10746
:1000E000E1F70E94C2010C94F1010C940000CF933F
:1000F000DF9300D01F92CDB7DEB789837B836A83FD
:1001000089818A3031F48A819B81BC018DE00E9413
:10011000770080EC90E0FC018081882F90E0807275
:1001200099270097B1F386EC90E02981FC012083A8
:1001300080E090E00F900F900F90DF91CF910895A5
:10014000CF93DF93CDB7DEB780E290E0FC018081F2
:100150008170DF91CF910895CF93DF93CDB7DEB754
:1001600080E290E0FC0180818270DF91CF91089560
:10017000CF93DF93CDB7DEB780910F01909110013F
:10018000CC01A0E0B0E040E050E027E030E0841B8C
:10019000950B2817390708F4A0C08A5B9F4FFC0114
:1001A0000C94E80181E090E09093100180930F019E
:1001B00099C00E94A000882359F40E94AC008823B3
:1001C00039F481E090E09093100180930F012DC0ED
:1001D0000E94A000882359F00E94AC00882339F4C3
:1001E00082E090E09093100180930F011EC00E9466
:1001F000A000882359F40E94AC00882339F083E0E2
:1002000090E09093100180930F010FC00E94A00016
:10021000882359F00E94AC00882339F084E090E0F4
:100220009093100180930F015DC05CC085E090E069
:100230009093100180930F0155C00E94A000882365
:1002400059F00E94AC00882339F485E090E0909347
:10025000100180930F0146C081E090E0909310015F
:1002600080930F013FC086E090E09093100180934F
:100270000F0138C00E94A000882359F40E94AC00EE
:10028000882339F086E090E09093100180930F016D
:1002900029C081E090E09093100180930F0122C06B
:1002A00087E090E09093100180930F011BC00E94A3
:1002B000A000882359F00E94AC00882339F087E021
:1002C00090E09093100180930F010CC081E090E0CA
:1002D0009093100180930F0105C0109210011092AD
:1002E0000F01000080910F0190911001CC01A0E05E
:1002F000B0E040E050E027E030E0841B950B281789
:100300003907D0F1825B9F4FFC010C94E80187E034
:1003100080930E0188E290E020910E01FC01208381
:100320002EC080910E01893060F480910E018F5FA4
:1003300080930E0188E290E020910E01FC01208361
:100340001EC01DC080910E01882361F080910E01B6
:10035000815080930E0188E290E020910E01FC0113
:1003600020830DC00CC010920E0188E290E0209115
:100370000E01FC01208303C0000001C00000DF91DA
:10038000CF910895CF93DF93CDB7DEB781E290E0B0
:10039000FC01108282E290E02FEFFC01208387E2D3
:1003A00090E02FEFFC01208388E290E0FC011082B6
:1003B0001092100110920F0187E080930E0188E2E5
:1003C00090E020910E01FC0120830E94B800FDCF37
:1003D000EE0FFF1F0024001C0BBE0790F691E02DCE
:0603E0000994F894FFCF20
:0E03E600000000020000000077000000000090
:00000001FF
