:100000000C9446000C9465000C9465000C946500FB
:100010000C9465000C9465000C9465000C946500CC
:100020000C9465000C9465000C9465000C946500BC
:100030000C9465000C9465000C9465000C946500AC
:100040000C9465000C9465000C9465000C9465009C
:100050000C9465000C9465000C9465000C9465008C
:100060000C9465000C9465000C9465000C9465007C
:100070000C9465000C9465000C9465000C9465006C
:100080000C9465000C9465000C94650011241FBE4F
:10009000CFEFD0E4DEBFCDBF11E0A0E0B1E0E4EBF4
:1000A000F2E000E00BBF02C007900D92AE30B10746
:1000B000D9F711E0AEE0B1E001C01D92A031B10767
:1000C000E1F70E9437010C9458010C940000CF9383
:1000D000DF9300D01F92CDB7DEB789837B836A831D
:1000E00089818A3031F48A819B81BC018DE00E9434
:1000F000670080EC90E0FC018081882F90E08072A6
:1001000099270097B1F386EC90E02981FC012083C8
:1001100080E090E00F900F900F90DF91CF910895C5
:10012000CF93DF93CDB7DEB780910E0190910F0191
:100130008230910561F18330910530F4009761F0D0
:100140008130910581F05FC083309105A1F1843049
:10015000910509F444C057C081E090E090930F01ED
:1001600080930E0154C080E290E0FC0180818823DE
:1001700039F081E090E090930F0180930E0147C029
:1001800082E090E090930F0180930E0140C080E2E6
:1001900090E0FC018081882339F482E090E0909324
:1001A0000F0180930E0133C083E090E090930F0124
:1001B00080930E012CC080E290E0FC0180818823B6
:1001C00039F083E090E090930F0180930E011FC0FF
:1001D00084E090E090930F0180930E0118C080E2BC
:1001E00090E0FC018081882339F484E090E09093D2
:1001F0000F0180930E010BC081E090E090930F01FE
:1002000080930E0104C010920F0110920E01809194
:100210000E0190910F018230910509F18330910513
:1002200030F40097F1F08130910541F013C0833034
:10023000910551F084309105B1F00CC085E290E059
:1002400021E0FC01208310C085E290E022E0FC0167
:1002500020830AC010920F0110920E0105C0000009
:1002600003C0000001C00000DF91CF910895CF933B
:10027000DF93CDB7DEB781E290E0FC01108282E22D
:1002800090E02FEFFC01208384E290E02FEFFC014F
:10029000208388E290E0FC01108285E290E0FC017E
:1002A000108210920F0110920E010E949000FDCF5B
:0402B000F894FFCFF0
:0E02B4000000000200000000670000000000D3
:00000001FF
